:020000040800F2
:1000000010070020890100080D1C0008051C0008CD
:10001000091C0008FD020008211C00080000000067
:10002000000000000000000000000000151C000897
:10003000ED05000800000000111C0008191C000854
:10004000A3010008A3010008A3010008A301000800
:10005000A3010008A3010008A3010008A3010008F0
:10006000A3010008A3010008A3010008A3010008E0
:10007000A3010008A3010008A3010008A3010008D0
:10008000A3010008A3010008A3010008A3010008C0
:10009000A3010008A3010008A3010008A3010008B0
:1000A000A3010008A3010008A3010008A3010008A0
:1000B000A3010008A3010008A3010008A301000890
:1000C000A3010008A3010008A3010008A301000880
:1000D000A3010008A3010008A3010008A301000870
:1000E000A3010008A3010008A301000800F002F822
:1000F00000F03AF80AA090E8000C82448344AAF188
:100100000107DA4501D100F02FF8AFF2090EBAE885
:100110000F0013F0010F18BFFB1A43F0010318473B
:100120003022000050220000103A24BF78C878C165
:10013000FAD8520724BF30C830C144BF04680C60ED
:10014000704700000023002400250026103A28BF35
:1001500078C1FBD8520728BF30C148BF0B60704739
:100160001FB51FBD10B510BD00F031F81146FFF7E7
:10017000F7FF01F057FD00F04FF803B4FFF7F2FF6F
:1001800003BC00F057F800000948804709480047C1
:10019000FEE7FEE7FEE7FEE7FEE7FEE7FEE7FEE737
:1001A000FEE7FEE704480549054A064B7047000094
:1001B0001D1C0008ED0000081001002010070020A1
:1001C00010030020100300207047704770477546E9
:1001D00000F02CF8AE4605006946534620F00700B3
:1001E000854618B020B5FFF7DDFFBDE820404FF091
:1001F00000064FF000074FF000084FF0000BAC4630
:10020000ACE8C009ACE8C009ACE8C009ACE8C0097A
:1002100021F007018D46704710B50446AFF300800A
:100220002046BDE81040FFF7A8BF00000048704717
:100230001000002001491820ABBEFEE72600020096
:1002400070470000B0B582B00446002001902168DC
:100250008A68D2074FD1886840F00100886040F278
:100260000800C2F2000000684DF68361C4F21B3141
:10027000A0FB0101880C01900198A0B10198013800
:100280000190019878B1019801380190019850B11E
:10029000019801380190019828B101980138019026
:1002A00001980028EAD100F055FE21688968C90745
:1002B0001CD1054603E000BF8068C0071AD100F0DA
:1002C00049FE411B20680329F6D38168C907F3D191
:1002D000A06A40F01000A062E06A40F00100E06215
:1002E000002084F82400012002B0B0BD002002B03C
:1002F000B0BD00BF002002B0B0BD0000FEE70000AE
:1003000001F082BB00680022426206E0426A8A4233
:1003100028BF7047426A8A4205D2426A8A4202D2A4
:10032000426A8A42F2D3704780B5DDF808E094460D
:100330000129024604D0022905D142F6E06001E01D
:1003400044F250601080D360A2F808E06046C2F822
:1003500004C0BDE88040FFF7D3BF00002DE9F0479F
:1003600084B0018900220446C068CDE90012012151
:1003700002916946039200F0D7FC00BF2189E06832
:1003800000F0DCFD0028F9D060682821FFF7BAFFF3
:100390002189E06800F0D2FD8246002818BF6FF086
:1003A0007F0A00BF2189E06800F0C8FD0028F9D16C
:1003B0002189E06800F0C2FD0028F9D0606828219A
:1003C000FFF7A0FF2189E06800F0B8FD002818BF02
:1003D0004AF0400A2189E06800F0B0FD0028F9D118
:1003E0002189E06800F0AAFD0028F9D06068282182
:1003F000FFF788FF2189E06800F0A0FD002818BF02
:100400004AF0200A2189E06800F098FD0028F9D11F
:100410002189E06800F092FD0028F9D06068282169
:10042000FFF770FF2189E06800F088FD804600BF7B
:100430002189E06800F082FD0028F9D12189E06877
:1004400000F07CFD0028F9D060682821FFF75AFFF2
:100450002189E06800F072FD814600BF2189E068D3
:1004600000F06CFD0028F9D12189E06800F066FDFC
:100470000028F9D060682821FFF744FF2189E0684F
:1004800000F05CFD064600BF2189E06800F056FDE3
:100490000028F9D12189E06800F050FD0028F9D04A
:1004A00060682821FFF72EFF2189E06800F046FDF3
:1004B000074600BF2189E06800F040FD0028F9D11F
:1004C0002189E06800F03AFD0028F9D06068282111
:1004D000FFF718FF2189E06800F030FD054600BFF6
:1004E0002189E06800F02AFD0028F9D1002D18BF0D
:1004F0000125B8F1000F18BF4AF0100A0AF0F00009
:10050000B9F1000F18BF4FF0010940EAC900002EF1
:1005100018BF012640EA8600002F18BF012740EAD5
:100520004700284404B0BDE8F087000070B584B0EF
:1005300001890446C068009102210025012603912B
:1005400069460295019600F0EFFB2189E0680022E0
:1005500000F0FAFC606844F25061FFF7D3FE218995
:10056000E0688DE862006946039500F0DDFB606895
:100570002821FFF7C7FE2189E06800F0DFFC38B9C9
:1005800060682821FFF7BEFE2189E06800F0D6FCF4
:100590002189E06800F0D2FC0028F9D12046FFF75D
:1005A000DDFE2046FFF7DAFE05462046FFF7D6FEC1
:1005B0002046FFF7D3FE01F0E7FD0026C4F2240633
:1005C0000022334601F086FC01F052FC20612846EF
:1005D00001F0DAFD0022334601F07CFC01F048FC1A
:1005E00001460020616104B070BD0000704700004A
:1005F00010B581B00022009290F82420012A03D186
:100600000221084601B010BD4B680122062B80F87C
:10061000242015D8026803EB8303A3F1050E1F23E2
:10062000D2F834C003FA0EF40B682CEA040C03FA77
:100630000EF444EA0C045463092B17D937E000BFC9
:1006400002680C2B20D803EB8303A3F123041F23A0
:10065000D2F830C003FA04FE0B682CEA0E0C03FA41
:1006600004F444EA0C041463092B20D8D2F810C017
:1006700003EB4303072489689C402CEA0404994057
:1006800021431161002136E003EB8303A3F1410410
:100690001F23D2F82CC003FA04FE0B682CEA0E0CC0
:1006A00003FA04F444EA0C04D462092BDED903EB08
:1006B0004304D2F80CC0A4F11E0E0724896804FA82
:1006C0000EF42CEA040401FA0EF1214323F0010494
:1006D000102CD1600ED142F20841C4F20101A1F107
:1006E0000804A2420ED0816A41F0200181620121FA
:1006F00001E000BF0021002280F82420084601B05C
:1007000010BD00BF0A68120230D40A68102B42F4F0
:1007100000020A602CD140F20801C2F2000109680F
:100720004DF68362C4F21B32A1FB0212910C01EB65
:100730008101490000910099E1B1009901390091CE
:100740000099C9B10099013900910099B1B100999E
:1007500001390091009999B10099013900910099EE
:1007600000294FF00001E8D1C5E700BF0021C2E732
:100770000021C0E70021BEE70021BCE70021BAE765
:100780000021B8E70068C06C70470000B0B50028D1
:1007900000F0A8800446806A20B121688868C007FC
:1007A0000BD114E00020E06284F82400204600F021
:1007B0009BF821688868C00709D0886820F001008C
:1007C000886000F0C7FB21688A68D20726D1A06A3A
:1007D000C0063AD4A06A41F2021290430230A062ED
:1007E000E069D4E9013240EA030C531EB3FA83F303
:1007F0005D091346B2F5807F18BF2B02207D257B53
:1008000001284CEA450030D135B3A56A45F02005F2
:10081000A562E56A45F00105E56226E0054602E0CD
:100820008868C007D3D000F095FB401B21680328DF
:10083000F6D38868C007F3D0A06A40F01000A06229
:10084000E06A40F00100E062A06AA06A40F0100097
:10085000A0620120B0BD00BFD4F818C04EF600055C
:10086000CFF6FF7505EB4C352B434D68B2F5807F15
:1008700025F4694543EA05034B608B684FF2FD752B
:10088000CFF6E17503EA050343EA00038B6001D06C
:10089000012A07D122690023CFF6F07303EB02523D
:1008A00001E000BF0022CB6A23F470031A43CA623E
:1008B000896840F6FE62CFF61F721140814207D16F
:1008C0000020E062A16A012262F30101A162B0BDD1
:1008D000A06A40F0100020F00200A062E06A40F040
:1008E0000100E0620120B0BD80B586B0014640F64F
:1008F0000000C4F20100096800F5E05291424FF097
:100900000001CDE9041101D006B080BD41F218010B
:10091000C4F202010A6842F400720A600A6802F432
:1009200000720192019A0A6842F004020A600968A2
:1009300001F0040101910199012102910321039128
:1009400002A900F0F1F906B080BD0000F0B581B059
:1009500000270D460446009700F0FCFA21688A68DB
:10096000D20543D406464868C00503D4C86A10F4CB
:10097000700F45D040F20800C2F200000768022064
:1009800000F092FB216844F624130A69B7FBF0F0EB
:10099000C2F292431A4206D1CA6844F62413C0F246
:1009A00092031A425ED00A6942F29243C1F249238D
:1009B0001A4207D1CA6842F29243C0F249031A426E
:1009C00000F0C0800A6949F24923C0F224031A42A8
:1009D0004FF0FC0257D1CF681F4208BF5422009B42
:1009E00002FB00F7BB4253D3C3E000BFA06A40F054
:1009F0002000A06284F82470012001B0F0BD00BF87
:100A00000868800700F1B580681C00F0A880FDB977
:100A10000868800772D50868800700F1AA80086816
:100A200080076BD50868800700F1A38008688007FD
:100A300064D50868800700F19C80086880075DD550
:100A400008688007E4D594E00868800700F1918089
:100A500000F080FA801B2168A842F5D90868800759
:100A6000F2D44BE00A6942F29243C1F249231A429E
:100A70004FF0290207D1CB6842F29247C0F24907F2
:100A80003B4208BF1422009B02FB00F7BB4270D21E
:100A9000681C4FD055BB0098B8422FD30098013046
:100AA00000900098B84264D20098B84226D30098CB
:100AB000013000900098B8425BD20098B8421DD334
:100AC0000098013000900098B84252D20098B84285
:100AD00014D30098013000900098B842DBD348E06E
:100AE0000098013000900098B84233D200F032FAFA
:100AF000801BA842F4D90098B842F1D2A06A40F015
:100B00000400A062002084F82400032001B0F0BD9E
:100B10000098013000900098B8422AD20098013025
:100B200000900098B84224D20098013000900098BC
:100B3000B8421ED20098013000900098B842E7D326
:100B400017E000BF5422009B02FB00F7BB429FD37B
:100B50000FE000BF21680CE00868800709D408682E
:100B6000800706D4086880075CBF08685FEA807069
:100B7000F2D56FF012000860A06A40F40070A06225
:100B8000886800F46020B0F5602F01D1207B18B197
:100B9000002001B0F0BD00BFA06A20F48070A06208
:100BA000A06AC004F4D4A06A40F00100A062002052
:100BB00001B0F0BD10B5044690F82400012804BF30
:100BC000022010BD012084F824002046FFF73AFBE4
:100BD00020B1002184F8241010BD00BF42F2044C63
:100BE0002068A16AC4F2010C40F2013291430CF575
:100BF0007F7201F580719042A16233D0A16A21F425
:100C00008011A1624168490504D5A16A012363F3FB
:100C10000D31A162A16A0023C9044FF0000144BF55
:100C2000E16A21F00601E1626FF0020184F82430EC
:100C30000160816801F46021B1F5602F06D1904216
:100C40000AD1DCF8001011F4702F05D0816841F44E
:100C500080118160002010BD816841F4A001816095
:100C6000002010BDDCF8001011F4702FC6D0A16A6E
:100C700041F48011A162DCF800104905C5D4C9E730
:100C8000B0B5044690F82400012804BF0220B0BD8E
:100C90000121206884F824108168C90709D081687F
:100CA00021F00101816000F055F921688968C907C8
:100CB0000ED1214651F8280F41F2011220EA02021A
:100CC000002042F001020A60002184F82410B0BD27
:100CD000054602E08068C007EBD000F03BF9411BFD
:100CE00020680329F6D38168C907F3D0A06A21469A
:100CF00040F01000A06251F82C2F0120E1E7000025
:100D0000B0B5044600F026F9054640F20000C2F2F4
:100D100000000078611C18BF044400BF00F01AF9FD
:100D2000401BA042FAD3B0BD2DE9F04F82B041F292
:100D30000042C4F201020E680423904208BF03235C
:100D4000002E009300F0F68040F20C4E4FF6FF7C30
:100D5000C4F2010E00220124C1F2100C4FF0000A6F
:100D60004FF0000943E000BF012502F00C040F27FB
:100D7000A7402BEA070705FA04F43C4343F8264052
:100D8000D1F804B040F20045C4F201055FEACB336C
:100D90002B6854BF23EA080343EA08032B606B68FF
:100DA0005FEA8B3454BF23EA080343EA08036B600D
:100DB0005FEACB24AB6854BF23EA080343EA080385
:100DC0005FEA8B24AB60DEF800304FF0010454BFC3
:100DD00023EA080343EA0803CEF800300E680AF15C
:100DE000010A36FA0AF302F1040200F0A38004FAC1
:100DF0000AF816EA080FF1D04B68634512DC122B93
:100E000056D8DFE803F0350B45495555555555552E
:100E1000555555555555554D510000BFD1F80C90BD
:100E200046E000BF4FF6FF77C1F22107BB420FDC5F
:100E30000027C1F21107BB421AD00027C1F21207E6
:100E4000BB4215D00027C1F22107BB4210D02FE0D2
:100E50000027C1F22207BB420AD00027C1F23107A6
:100E6000BB4205D00027C1F23207BB4220D100BFF0
:100E70008B684BB1012B14BFC0F81480C0F81080F0
:100E80004FF0080914E000BF4FF0040910E000BF64
:100E9000CB6803F108090BE04FF0000908E000BF40
:100EA000CB6803F1040903E0CB6803F10C0900BF30
:100EB00013460546BAF1080F24BF203B04352E68BF
:100EC0000F279F40BE4309FA03F333432B60CB79CE
:100ED000DB067FF583AF41F21804C4F202042368F5
:100EE0004FEA9A0643F001032360236840F60004AA
:100EF00003F001030193019B40F20043C4F201039C
:100F0000A3F57E7353F826B0C4F20104A0420FD0BB
:100F100040F60044C4F20104A0423FF425AF41F280
:100F20000004C4F20104009DA04208BF02251CE792
:100F300000251AE702B0BDE8F08F00008068084085
:100F400018BF012070470000002A08BF0904016192
:100F50007047000040F20810C2F2000000687047BD
:100F600040F2000040F20811C2F20000C2F200019B
:100F700000780A68104408607047000080B542F2AB
:100F80000000C4F20200016841F01001016003207A
:100F900000F07AF80F2000F005F800F027F80020A4
:100FA00080BD000070B540F20006C2F2000640F2BB
:100FB00008013278C2F200014FF47A730968B3FB7A
:100FC000F2F20446B1FBF2F1084600F039FC0F2CB6
:100FD0004FF0010508D838B94FF0FF302146002204
:100FE000002500F025F87460284670BD82B041F2FB
:100FF0001800C4F202000168022241F00101016000
:10100000016801F0010101910199416841F08051AD
:101010004160406800F08050009000980420C4F2C5
:101020000100016862F31A61016002B070470000BC
:1010300010B54EF60C5CCEF2000CDCF80030C3F3B9
:10104000022E8EF00704042C28BF0424BEF10303F3
:101050004FF0FF3E0EFA04F438BF0023A14399403D
:101060000EFA03F39A43114300F00F02043A62446C
:1010700009010C3200F16043B0F1FF3FC8BF03F536
:101080006442117010BD00004EF60C51CEF200010A
:101090000A684FF6FF031A4060F30A2242F08060AC
:1010A00040F0FD700860704780B5012818D0022814
:1010B00036D0102832D141F20401C4F202010A688C
:1010C00051F8040CC00129D5C2F383402DA3185C4C
:1010D000D2033DD440F60012C0F23D02504343E03B
:1010E00041F20400C4F20200C16940F202320A4037
:1010F000B2F5817F04BF4FF4004080BD01F4407120
:10110000B1F5407F1CD0B1F5007F07D1006A49F6E8
:101110004041800701EAE07080BD00BF002080BD33
:1011200000F0A0F941F20401C4F2020109680222B0
:10113000C1F3813102EB4101B0FBF1F080BD00BF92
:1011400050F8040C4FF22441800301EAE07080BDA6
:101150000A6810A3C2F340429A5C41F20023C0F235
:101160007A03B3FBF2F250430968490248BF80BDDD
:101170004AF6AB214000CAF6AA21A0FB01014808AB
:1011800080BD00BF02030405060708090A0B0C0D09
:101190000E0F1010010200002DE9F04182B004464C
:1011A000007841F21C06C007C4F202064AD030683B
:1011B00010F0805808D1306840F0805030603068BE
:1011C00000F080500190019847F20007C4F2000738
:1011D0003868C00512D4386840F480703860FFF772
:1011E000B9FE05463868C00508D4FFF7B3FE401BBA
:1011F0006428F7D9032002B0BDE8F081706810F4CC
:10120000407012D0616801F4407188420DD070685E
:1012100040F24042C4F24222012320F440711360A4
:101220000023C007136071602AD17068616820F4E0
:1012300040700843B8F1000F706003D1306820F0AF
:10124000805030602068810707D556F8181CA268C6
:1012500021F44041114346F8181CC00604D4002074
:1012600002B0BDE8F08100BF56F8180CE16820F428
:101270008000084346F8180C002002B0BDE8F08159
:10128000FFF768FE054641F2883700BF70688007A7
:10129000CBD4FFF75FFE401BB8424FF00300F5D9F7
:1012A000EBE700002DE9F04381B0002800F08580D5
:1012B00042F20008C4F202080446D8F800000D46C5
:1012C00000F0070088420CD2D8F8000020F0070098
:1012D0002843C8F80000D8F8000000F00700A84232
:1012E0006BD1206841F204098107C4F2020917D5C5
:1012F000410705D5D9F8001041F4E061C9F80010A4
:10130000010705D5D9F8001041F46051C9F8001063
:10131000D9F80010A26821F0F0011143C9F80010BB
:10132000C00741D1D8F8000000F00700A8420CD94E
:10133000D8F8000020F007002843C8F80000D8F8CB
:10134000000000F00700A84237D12068410707D508
:10135000D9F80010E26821F4E0611143C9F80010E7
:10136000000708D5D9F80000216920F4605040EA50
:10137000C100C9F80000D9F8002002F00C000828CC
:1013800041F20020C0F27A0050D142F23E33C2F363
:101390008341C0F60003595CD2033BD440F60010F1
:1013A000C0F23D00484341E0606802280AD00128AD
:1013B0002AD159F8041C890308D4012001B0BDE8E2
:1013C000F08300BF59F8041C8901F6D5D9F8001044
:1013D00021F003010843C9F80000FFF7BBFD0646F2
:1013E00041F28837D9F80000616800F00C00B0EBDA
:1013F000810F97D0FFF7AEFD801BB842F2D90320D2
:1014000001B0BDE8F08300BF59F8041C8907D4D5AA
:10141000DCE700BFD9F8002042F22433C2F3404297
:10142000C0F600039A5C4843B0FBF2F0D9F8001014
:1014300042F22632C1F30311C0F60002515C40F2C1
:10144000080220FA01F140F20400C2F20000006834
:10145000C2F200021160FFF7A5FD002001B0BDE857
:10146000F083000040F2080041F20401C2F20000E3
:10147000C4F202010068096842F23632C1F3C221A7
:10148000C0F60002515CC840704700002DE9F041F1
:1014900082B0002868D00446007841F20006C007F8
:1014A000C4F2020625D0706800F00C0004281BD09E
:1014B000706800F00C00082802D17068C00313D4D3
:1014C0006068002800F06881B0F5A02F00F07C81F2
:1014D000B0F5803F00F07C81306820F480303060CF
:1014E000306820F4802076E13068800301D56068A0
:1014F000D0B32078800718D5706810F00C0F07D093
:10150000706800F00C0008286ED17068C0036BD4BE
:101510003068800702D52069012825D130686169CB
:1015200020F0F80040EAC1003060207800071FD4A6
:101530002078400732D4E56995B1706800F00C005E
:10154000082840F08F80012D0ED07068216A00F4C9
:1015500080328A4208D1616A00F47010884203D157
:10156000002002B0BDE8F081012002B0BDE8F081AA
:10157000A069002862D00020C4F242200121C0F8F6
:101580008014FFF7E7FC0546706A800700F18C8045
:10159000FFF7E0FC401B0228F6D92AE1F06910F0C1
:1015A000805808D1F06940F08050F061F06900F097
:1015B00080500090009847F20007C4F20007386896
:1015C000C00529D4386840F480703860FFF7C2FC49
:1015D000054600BF3868C0051ED4FFF7BBFC401BA2
:1015E0006428F7D905E100BF2069002840F2000017
:1015F000C4F2422000F0828001210160FFF7AAFCC2
:10160000054600BF306880073FF588AFFFF7A2FCB2
:10161000401B0228F6D9ECE0E068002800F080804A
:10162000052800F09780012800F09880306A20F0AB
:1016300001003062306A20F0040092E00020C4F221
:1016400042200021C0F88014FFF784FC054600BF4B
:10165000706A80077FF56CAFFFF77CFC401B0228A7
:10166000F6D9C6E00027C4F2422700203866FFF70B
:1016700071FC022D05460BD13068800140F1BE801F
:10168000FFF768FC401B02284FF00300F4D968E71D
:10169000306880017FF564AFFFF75CFC401B0228D7
:1016A0004FF00300F4D95CE740F20800C2F20000FA
:1016B000006844F6D351C1F26201A0FB0101480A5F
:1016C000019000BF00BF0198411E002801913FF426
:1016D0002FAF00BF0198411E002801913FF428AFB1
:1016E00000BF0198411E002801913FF421AF00BFC7
:1016F0000198411E00280191E4D119E70021016001
:10170000FFF728FC054600BF306880077FF50DAF66
:10171000FFF720FC401B02284FF00300F4D920E71C
:10172000306A20F001003062306A20F0040030623C
:10173000FFF710FC054641F2883700BF306A80078A
:1017400020D5FFF707FC401BB8424FF00300F5D946
:1017500007E700BF306A40F004003062306A40F0B2
:1017600001003062FFF7F6FB054641F2883700BF03
:10177000306A800706D4FFF7EDFB401BB842F7D96B
:1017800037E000BFB8F1000F7FF4D5AEF06920F06C
:101790008050F061CFE600BF306820F480303060C8
:1017A000306820F480203060FFF7D4FB054600BF8E
:1017B000306880037FF59DAEFFF7CCFB401B6428AB
:1017C0004FF00300F4D9CCE6306840F4802030605C
:1017D000306840F480303060FFF7BCFB054600BF46
:1017E000306880033FF585AEFFF7B4FB401B6428EB
:1017F000F6D9032002B0BDE8F08100BF206AB0F541
:10180000803F05D17168A26821F4003111437160F5
:101810007168626A21F474111043084370600120FA
:101820003866FFF797FB0446306880013FF598AEB5
:10183000FFF790FB001B02284FF00300F4D990E65D
:10184000411E0020B0EB116F1CBF012070474EF20B
:101850001002CEF2000251604EF62351CEF200018A
:10186000F0230B70072190601160704710B590F85D
:101870003C20012A4FF0020233D080F83D2002685C
:10188000D2F804E0D2F808C00C682EF070032343AD
:1018900040F2FF74C4F20004A24253600ADCB2F1C9
:1018A000804F13D040F20043C4F200039A420DD09F
:1018B00011E000BF42F60043C4F201039A4205D092
:1018C00040F60003C4F200039A4204D149682CF0A8
:1018D0008003194391600121002280F83D1080F8B7
:1018E0003C20104610BD0000002804BF01207047B6
:1018F00010B5044690F83D0028B9002084F83C005B
:10190000204600F067F8022084F83D00206840F28D
:10191000FF730268C4F2000342F6004C9842C4F21E
:10192000010C15DCB0F1804F1AD040F20041C4F236
:101930000001884214D0984218DCB0F1804F1DD0CD
:1019400040F20041C4F20001884217D01AE000BF03
:10195000604505D040F60001C4F200018842EAD19A
:10196000A16822F070020A439842E6DD604505D086
:1019700040F60001C4F20001884203D1216922F43B
:1019800040720A43A36922F08001D4F804E0E268BF
:10199000194360450160C262C0F828E002D1616964
:1019A000CCF8301001214161002084F8461084F801
:1019B0003E1084F83F1084F8401084F8411084F8F9
:1019C000421084F8431084F8441084F8451084F8D9
:1019D0003D1010BD81B0006840F60001C4F2000166
:1019E000884201D001B0704741F21C00C4F20200ED
:1019F000016841F004010160006800F004000090FB
:101A0000009801B07047000090F83D1001291CBFFC
:101A100001207047022180F83D10006840F2FF71FC
:101A2000C4F20001884209DCB0F1804F12D040F2CC
:101A30000041C4F2000188420CD012E042F600419D
:101A4000C4F20101884205D040F60001C4F2000151
:101A5000884206D1816801F00701062904BF0020F1
:101A60007047016841F001010160002070470000EB
:101A700080B590F83C20012A4FF0020200F0BF80B0
:101A800080F83D20D0F800C04FF67772DCF80830BF
:101A900023EA0202CCF808200B683F2B1CDD5F2BE9
:101AA00020DD602B50D0B3F5005F6DD0702B40F07F
:101AB000A080D1E901E3C968DCF8082043EA0E03FD
:101AC00022F47F4243EA01211143CCF80810DCF8EC
:101AD000081041F077018AE01F2B29DC63B3102B3B
:101AE0002AD086E0402B63D0502B40F08280D1F882
:101AF00004E0C968DCF82030DCF8202022F0010284
:101B0000CCF82020DCF8182022F0F00242EA011183
:101B100023F00A0242EA0E02CCF81810CCF820207A
:101B2000DCF8081041F0570121F020015FE000BF10
:101B3000202B01D0302B5CD1DCF8081021F0700193
:101B4000194341F0070152E0D1F804E0C968DCF81C
:101B5000203023F01003CCF82030DCF81830DCF80B
:101B6000202023F4704322F0A00243EA013142EA2C
:101B70000E12CCF81810CCF82020DCF8081041F038
:101B8000670121F0100132E0D1E901E3C968DCF816
:101B9000082043EA0E0322F47F4243EA0121114365
:101BA000CCF80810DCF8081041F480411FE000BFB9
:101BB000D1F804E0C968DCF82030DCF8202022F0FD
:101BC0000102CCF82020DCF8182022F0F00242EAD2
:101BD000011123F00A0242EA0E02CCF81810CCF8E8
:101BE0002020DCF8081041F0470121F03001CCF84A
:101BF00008100121002280F83D1080F83C2010469A
:101C000080BD0000FEE70000FEE70000FEE70000E8
:101C10007047000070470000FFF7A2B9704700004E
:101C2000FEE7000096B0FFF7A9F900240120CDE9F6
:101C30001144CDE90F440C9010904FF4E0104FF494
:101C40008031022515900CA80594CDE90344CDE917
:101C50000D14CDE91351FFF719FC28B1EFF31080F3
:101C600072B600BFFEE700BF0F20CDE906054FF4B6
:101C70008060CDE9090406A802210894FFF712FB51
:101C800020B1EFF3108072B6FEE700BF4FF40040C2
:101C90000227049002A80297FFF77EFA20B1EFF323
:101CA000108072B6FEE700BF41F21800C4F20200D5
:101CB000016840F6000841F0100101600168C4F2BB
:101CC000010801F010010C910C99016808F50065FC
:101CD00041F0200101600168002201F020010C9117
:101CE0000C9901684FF4005641F00401016000684E
:101CF0004FF4005100F004000C900C98284600248A
:101D0000FFF722F9404602210022FFF71DF90C9649
:101D10000CAE4FF0010928463146CDE90D940F97DE
:101D2000FFF702F840463146CDE90C79CDE90E9730
:101D3000FEF7FAFF4FF40070CDE90C04404631463F
:101D40000E94FEF7F1FF40F27007C2F2000708F5AB
:101D5000E051384640F8201F4FF4602104730475A9
:101D6000C161C0E90144C0F81090FEF70FFD28B131
:101D7000EFF3108072B600BFFEE700BF072007F147
:101D800020050E900CA92846CDE90C49FEF730FC41
:101D900020B1EFF3108072B6FEE700BF40F2C00042
:101DA0000021A8F58032C2F2000048234FF6FF76EA
:101DB0000F91CDE90D11CDE90611C0E90023C0E96D
:101DC000021601618161FFF78FFD28B1EFF31080EA
:101DD00072B600BFFEE700BF4FF480500C9040F297
:101DE000C000C2F200000CA9FFF742FE20B1EFF3E1
:101DF000108072B6FEE700BF40F2C000C2F20000E1
:101E000006A9FFF733FD28B1EFF3108072B600BFCB
:101E1000FEE700BF07F1080640F2C0020224C2F24A
:101E200000023046022143460094FEF77DFA00BFCF
:101E30002846FEF7BFFE28464FF47A71FEF786FD6E
:101E40002846FEF79FFC38802846FEF719FF3046EB
:101E5000FEF76CFBD7E9060400F0FEF97880204617
:101E600000F0FAF9B8804FF4FA70FEF749FFDFE7A7
:101E700021F0004201F00043A2F16052B2F5801F50
:101E800028BFD2F17F6C0BD95FEA001C43EAC20283
:101E900042EB507018BF704728BF20F00100704718
:101EA000B2F5801FBCBF184670474FEA410C1CF5C5
:101EB000001F02D2084600F030BA70B500F077F982
:101EC00000000089FFF7F6BF4FF00040A0F580004A
:101ED000704700002DE9C04130B4DFF8A4C23CEAED
:101EE000111418BF3CEA131400F0ED801CEA111421
:101EF00081EA030544EAD57418BF1CEA131500F003
:101F0000C880A4EB050404F17F7404F500344FF09D
:101F1000004545EAC12145EAC32341EA505143EA5D
:101F200052534FEAC0204FEAC222994208BF904262
:101F300000F09D804FEA13650FF24416765D4FEA7C
:101F4000134506FB05F7C7F1807706FB07F74FEA55
:101F5000D737A7FB03687642A7FB06CEC8F58038C3
:101F600038BFA8F1010807FB08E6A6FB028C4FF07A
:101F7000000EE6FB03CEDCF1000CCEF1004E38BFC4
:101F8000AEF1010EA6FB0C584FF00007E6FB0E87E2
:101F9000A1FB08C6A0FB07CE16EB0E064FF000050E
:101FA00045F10005E1FB076515F1E04E7EBFA4F5A4
:101FB00080345FEA46066D4116F1800745F1000561
:101FC0004FEA172747EA05674FEA15254FEA0666E5
:101FD000A6F1DE46B6F1805F20D9384605EBC47124
:101FE00024F0010C01EB0C11BCF1FE6F02D8F0BC27
:101FF000BDE8008124425CBF01F5801E9EEAC47FDB
:1020000002D4F0BCBDE80081244200F13980A1F186
:10201000C041F0BCBDE8004100F017B94FEAD02044
:1020200040EA41504FEAD1214FEAD22242EA4352DC
:102030004FEAD323A7FB028607FB036605FB026674
:102040001EEA0E0F58BFA6EB0056B6EB00564FEA3D
:10205000520E4EEAC37E18EB0E0E56EB530EBCD555
:1020600018EB02085E417F1C55F10005B5E74FF4FF
:1020700080154FF000074FF000064FF00008ACE766
:1020800001F1C04101F000414FF00000F0BCBDE89B
:1020900000810CEA131511EA0C1F00D00CE013EAC2
:1020A0000C1F00F026804FF0000081EA030101F0D0
:1020B0000041F0BCBDE80081F0BCBDE8004181EA10
:1020C000030100F0C2B8F0BCBDE8004170B500F0FB
:1020D0006EF800BF097EFC3E00F007B84FF000002C
:1020E00081EA030101F00041704781EA030100F039
:1020F000ACB8F0BCBDE8004122494FF00000704789
:10210000FFFDFBF9F7F5F4F2F0EEEDEBE9E8E6E4BC
:10211000E3E1E0DEDDDBDAD8D7D5D4D3D1D0CFCD43
:10212000CCCBCAC8C7C6C5C4C2C1C0BFBEBDBCBB7C
:10213000BAB9B8B7B6B5B4B3B2B1B0AFAEADACAB77
:10214000AAA9A8A8A7A6A5A4A3A3A2A1A09F9F9E51
:102150009D9C9C9B9A999998979796959594939303
:10216000929191908F8F8E8E8D8C8C8B8B8A89899A
:10217000888887878685858484838382828181801D
:102180000000FF070000F87FB0FA80F310FA03F1B7
:102190000AD0C3F11D0303F580634FEA03524FEAEF
:1021A000415002EBD12170474FF0000070470EF113
:1021B000020E2EF0030E5EF8046B364205D4012A9F
:1021C00043EB030515F5001F12D8012841EB010C64
:1021D0001CF5001F0CD80ED14FEAD17C0CEB4C0C37
:1021E0000CF1020C15F5001F08BF4CEBD37C04E08A
:1021F0004FF0080C01E04FEAD37C0CEB4C0526FABB
:1022000005F606F00706B6F1040C06D20EEB860CB6
:10221000BDE870404CF0010C6047DFE80CF0090BA2
:1022200002024FF00041A1F500214FF0000070BD07
:1022300019461046012851EB010418BFD4F50014CB
:1022400084BF002001F0004170BD0808A0F5001116
:102250004FEA31017047000041000B0ED3F19E029E
:1022600008D950F400034FEA032323FA02F048BFD1
:102270004042704710B500F00AF800BF4992248030
:10228000002070476FF0004282EA200070470EF194
:10229000020E2EF0030E5EF8044B244204D44FEAE3
:1022A0004102B2F17F4F11D84FEA4003B3F17F4FA3
:1022B0000CD80ED14FEAD07C0CEB4C0C0CF1020C7C
:1022C000B2F17F4F08BF4CEBD17C04E04FF0080C1B
:1022D00001E04FEAD17C0CEB4C0324FA03F404F048
:1022E0000704B4F1040C06D20EEB840CBDE81040D8
:1022F0004CF0010C6047DFE80CF0070802024FF0D9
:102300000040A0F5800010BD0846420018BFD2F181
:10231000807288BF00F0004010BDFF2141EAD0501C
:10232000C00570470102000000000000000001022B
:102330000304060708090000000001020304020369
:102340000405060708090A0B0C0D0E0F10100000FB
:102350007023000800000020100000002801000881
:10236000802300081000002000070000440100083E
:1023700001000000100000000024F4000000000034
:04000005080000ED02
:00000001FF
